S01300006E61626172645F6C6173742E7372656396
S11300000C9465000C948D000C948D000C948D0060
S11300100C948D000C948D000C948D000C948D0028
S11300200C948D000C94DD060C948D000C948D00C2
S11300300C948D000C948D000C948D000C948D0008
S11300400C948D000C948D000C948D000C948D00F8
S11300500C948D000000000100000000000000006E
S1130060040300060000000000000000000000007F
S1130070000000000102040810204080010204086E
S1130080102040800102040810204080804020108D
S1130090080402010202020202020202040404042D
S11300A00404040403030303030303030101010120
S11300B00101010100003B0038003500320000005E
S11300C03A003700340031007C0611241FBECFE50E
S11300D0D4E0DEBFCDBF11E0A0E6B0E0E8E7FFE08A
S11300E002C005900D92A030B107D9F721E0A0E03D
S11300F0B1E001C01D92A832B207E1F710E0CAECEA
S1130100D0E004C02297FE010E94B607C83CD10784
S1130110C9F70E9469040C94BA070C940000CF93A9
S1130120DF93EC0160E08E810E94830781E090E020
S11301300E94270761E08E810E94830781E090E09E
S11301400E94270760E08E810E94830784E690E086
S11301500E942707DF91CF910895AF92BF92CF926B
S1130160DF92EF92FF920F931F93CF93DF935C0183
S11301708C01095F1F4FC0E0D0E0C62ED12C78015E
S113018061E0F80181918F010E944507B6010C2EB0
S113019002C0759567950A94E2F76170F701808152
S11301A00E9483072196C430D10549F7C5010E94F6
S11301B08F00DF91CF911F910F91FF90EF90DF900F
S11301C0CF90BF90AF900895AF92BF92CF92DF923D
S11301D0EF92FF920F931F93CF93DF935C018C01F7
S11301E0095F1F4FC0E0D0E0C62ED12C780161E03A
S11301F0F80181918F010E944507B6010C2E02C0BF
S1130200759567950A94E2F76170F70180810E9401
S113021083072196C830D10549F7C5010E948F0094
S1130220DF91CF911F910F91FF90EF90DF90CF90CE
S1130230BF90AF9008951F93CF93DF93EC01162FD7
S1130240642F8C810E9483078D818F3F19F060E0B9
S11302500E9483078F8584FF05C0612FCE010E9411
S1130260E40012C0812F90E0BC01759567957595E7
S113027067957595679575956795CE010E94AD0054
S1130280612FCE010E94AD00DF91CF911F9108959F
S113029040E061E00E941B0180ED97E00E94270787
S11302A00895443008F043E0FC012389421710F01C
S11302B04FEF420FFC01E40FF11D2489620F6068C7
S11302C040E00E941B010895FC016089262F2460F0
S11302D0208B6C6040E00E941B010895CF93DF9354
S11302E0EC01423018F08F8588608F874B8B1C8A15
S11302F080E48D8B6E8B70E0605C7F4F6F8B22236C
S113030029F0413019F48F8584608F8780E593EC60
S11303100E94270760E08C810E94830760E08E8141
S11303200E9483078D818F3F19F060E00E9483074C
S11303306F8564FD1DC063E0CE010E94AD0084E9B9
S113034091E10E94270763E0CE010E94AD0084E999
S113035091E10E94270763E0CE010E94AD0086E987
S113036090E00E94270762E0CE010E94AD0019C010
S1130370606240E0CE010E941B0184E991E10E9489
S113038027076F85606240E0CE010E941B0186E969
S113039090E00E9427076F85606240E0CE010E94D2
S11303A01B016F85606240E0CE010E941B0184E066
S11303B0888BCE010E946401CE010E94480182E034
S11303C0898B40E066E0CE010E941B01DF91CF9152
S11303D008956F927F928F92AF92CF92EF920F9384
S11303E01F93CF93DF93CDB7DEB73C01162F842F35
S11303F0F301448325830683E782C086A18682862F
S11304009D8593879E8594879F85958798899687F0
S113041061E00E944507F30185818F3F19F061E097
S11304200E94450761E0F30186810E94450711237C
S113043019F0F301178603C080E1F301878720E0F8
S113044041E060E1C3010E946E01DF91CF911F91F1
S11304500F91EF90CF90AF908F907F906F90089511
S11304608F92AF92CF92EF920F93DC0113961C926E
S11304701E921297E7E6F0E0ED93FC931F921F9211
S11304801F921F928A2CAC2CCE2CE02E022F242FEC
S1130490462F61E00E94E9010F900F900F900F909A
S11304A00F91EF90CF90AF908F90089541E00E940C
S11304B01B0181E090E0089515BA10921E01089581
S11304C080911E01882339F086B382FB882780F946
S11304D091E08927089580B383FB882780F991E010
S11304E08927089580911E01882339F089B383FBFD
S11304F0882780F991E08927089589B382958170CE
S113050091E089270895CA9B06C0C99907C003C012
S1130510CD9B08C00BC0CE9BFBCF08C085B38F7AA0
S113052085BB089585B38F7A85BB089585B38065AF
S113053085BB089510921E0181E080936200809330
S1130540610010921D0110921C0108950E94600226
S113055081110CC080911E01882321F081E08093D9
S11305600101089581E080930001089580911E01A6
S1130570882351F080910101882319F081E0809350
S1130580610010920101089580910001882319F0FF
S113059081E080936200109200010895829B0E9482
S11305A0CF040895CF930E94D203CE9BEAC0CA9B86
S11305B0EBC0E7C00E94D2030E94830280911E0117
S11305C08C2780931E010E94A60280911E018C2715
S11305D080931E010E94CE02CE99ECCF3DC041E033
S11305E060E083E091E00E9451016BE670E083E0FB
S11305F091E00E94C70641E061E083E091E00E943F
S113060051016CE770E083E091E00E94C706CA994B
S1130610FECF41E060E083E091E00E9451016BE68F
S113062070E083E091E00E94C706CE9B15C0C1E054
S11306300E94D2030E94830280911E018C27809322
S11306401E010E94A60280911E018C2780931E0128
S11306500E94CE02CE99ECCFCD9B02C0C99B9CC018
S1130660C1E012C00E94D2030E94830280911E0145
S11306708C2780931E010E94A60280911E018C2764
S113068080931E010E94CE020E946002882351F3CF
S113069004C00E94D2030E9483020E947202882333
S11306A0C1F30E94130581E080931E01C99B18C009
S11306B041E060E083E091E00E9451016BE670E06C
S11306C083E091E00E94C70641E061E083E091E0AD
S11306D00E9451016BE870E083E091E00E94C7063C
S11306E0C999FECFCD9B17C0C1E00E94D203C0932D
S11306F01E010E94830280911E018C2780931E019B
S11307000E94A60280911E018C2780931E010E94E4
S1130710CE02CD99EACFA898C1E012C00E94D203BC
S11307200E94830280911E018C2780931E010E94E7
S1130730A60280911E018C2780931E010E94CE0286
S11307400E946002882351F3C1E012C00E94D203C8
S11307500E94830280911E018C2780931E010E94B7
S1130760A60280911E018C2780931E010E94CE0256
S11307700E947202882351F30E94130510921E01F5
S11307800FC0CA9B69CF2BCFA89885B3806585BB62
S1130790CE9B62CFC1E00ECF85B3816585BB60CFB0
S11307A0CF910895B09969C01092600010921D0114
S11307B00E949A020E945C02AF9A809160008111AB
S11307C013C083E091E00E94480140E061E083E0CF
S11307D091E00E9451016AE970E083E091E00E9497
S11307E0C70681E080936000B09BFECFAF980E9463
S11307F05C028FE59AEE0197F1F700C0000036C065
S113080083E091E00E94480140E062E083E091E0EF
S11308100E94510169EA70E083E091E00E94C706FA
S113082041E064E083E091E00E94510166EB70E0F6
S113083083E091E00E94C70610926000B19916C04F
S113084041E060E083E091E00E9451016BE670E0DA
S113085083E091E00E94C70681E080931D010E941D
S11308605C020E949A020E94D202FDCFB09B2EC06D
S113087080911D0181112AC023C0809160008823CA
S113088039F183E091E00E94480140E062E083E0B6
S113089091E00E94510169EA70E083E091E00E94D6
S11308A0C70641E064E083E091E00E94510166EBF9
S11308B070E083E091E00E94C70610926000089502
S11308C080916000882309F4B9CF9ACFB09B6ACF96
S11308D00895CF93DF93CDB7DEB768970FB6F8943A
S11308E0DEBF0FBECDBF1ABA17BA11BA8FEF84BBE1
S11308F08BBB88BB82BB15BA0F2EFEE0AF2EF02D4A
S11309000F2EFDE0CF2EF02D0F2EF8E1EF2EF02D5F
S11309100FE02CE049E068E0CE0101960E9430022D
S113092020E042E060E183E091E00E946E0183E018
S113093091E00E9448016FEB70E083E091E00E9437
S1130940C70641E064E083E091E00E94510160ED5C
S113095070E083E091E00E94C7062FEF8DE399E4F5
S1130960215080409040E1F700C000000E945C02EA
S1130970B09B12C0B19B04C00E94D203B199FCCFBA
S113098041E060E083E091E00E9451016BE670E099
S113099083E091E00E94C7060E94D202FDCF9C9B97
S11309A006C085B38F7A85BB81E08093020183E022
S11309B091E00E94480140E065E083E091E00E94FC
S11309C0510168ED70E083E091E00E94C70641E0C8
S11309D064E083E091E00E94510166EB70E083E003
S11309E091E00E94C706B19B04C00E94D203B19952
S11309F0FCCF83E091E00E94480140E062E083E0A4
S1130A0091E00E94510169EA70E083E091E00E9464
S1130A10C70680910201882329F085B3806585BBD0
S1130A20109202010895CF93DF9380911E018823D1
S1130A3009F4A0C010921E01CA9902C0A89803C06C
S1130A4085B38F7A85BBB2997EC0AA9AC5E6D1E0F8
S1130A500E94A6020E9483020E94D2030E94CE0238
S1130A6080911B0181111EC08091620081111AC006
S1130A70D0931B014D2F60E083E091E00E9451016F
S1130A806BE670E083E091E00E94C7064D2F6D2F66
S1130A9083E091E00E9451016FED70E083E091E00A
S1130AA00E94C7068FE19EE40197F1F700C00000A1
S1130AB0C15071F6AA9810926100CDE2D1E00E9473
S1130AC0A6020E9483020E94D2030E94CE02CE9B01
S1130AD0A89A80916200882361F041E060E083E09D
S1130AE091E00E9451016BE670E083E091E00E9486
S1130AF0C7068FE19EE40197F1F700C0000021973B
S1130B002097E9F68091620081110FC0C1E00E9434
S1130B10A6020E94D2030E9483020E94CE02C093C6
S1130B201C0180916200882391F310921B0141E023
S1130B3060E083E091E00E9451016BE670E083E0A5
S1130B4091E00E94C70680911C01882389F0C9ECBA
S1130B500E9483020E94D2030E94CE028FE19EE48F
S1130B600197F1F700C00000C15091F710921C01E9
S1130B70AB98BFC081E080931E01C99902C0A89AB6
S1130B8003C085B38F7A85BB8399B3C0A99AC5E6A0
S1130B900E94A6020E9483020E94D2030E94CE02F7
S1130BA080911B0181111FC08091610081111BC0C4
S1130BB041E060E083E091E00E9451016BE670E067
S1130BC083E091E00E94C70641E061E083E091E0A8
S1130BD00E9451016FEE70E083E091E00E94C7062D
S1130BE081E080931B018FE19EE40197F1F700C03F
S1130BF00000C15069F6A99810926200CDE2D1E0DC
S1130C000E94A6020E9483020E94D2030E94CE0286
S1130C10CD9BA89880916100882361F041E060E059
S1130C2083E091E00E9451016BE670E083E091E083
S1130C300E94C7068FE19EE40197F1F700C000000F
S1130C4021972097E9F68091610081112EC00E94BE
S1130C50A60280911B0181111BC041E060E083E08A
S1130C6091E00E9451016BE670E083E091E00E9404
S1130C70C70641E061E083E091E00E9451016FEE1C
S1130C8070E083E091E00E94C70681E080931B013D
S1130C900E94D2030E9483020E94CE0281E08093CC
S1130CA01C0180916100882391F210921B0141E0A4
S1130CB060E083E091E00E9451016BE670E083E024
S1130CC091E00E94C70680911C01882389F0C9EC39
S1130CD00E9483020E94D2030E94CE028FE19EE40E
S1130CE00197F1F700C00000C15091F710921C0168
S1130CF0AB9ADF91CF910895AF92CF92EF920F9379
S1130D000F2EFEE0AF2EF02D0F2EFDE0CF2EF02D96
S1130D100F2EF8E1EF2EF02D0FE02CE049E068E013
S1130D2083E091E00E9430020F91EF90CF90AF905A
S1130D300895CF92DF92EF92FF920F931F93CF9378
S1130D40DF936C0141155105B1F0062F172FEA010D
S1130D50E12CF12CD8016D918D01D601ED91FC911E
S1130D600190F081E02DC6010995E80EF91E219746
S1130D70209781F702C0E12CF12CC701DF91CF91BC
S1130D801F910F91FF90EF90DF90CF900895611520
S1130D90710581F0FB0101900020E9F73197AF0163
S1130DA0461B570BDC01ED91FC910280F381E02D91
S1130DB00995089580E090E008951F920F920FB670
S1130DC00F9211242F933F938F939F93AF93BF93CD
S1130DD08091200190912101A0912201B0912301E1
S1130DE030911F0126E0230F2D3720F40296A11D18
S1130DF0B11D05C029E8230F0396A11DB11D209341
S1130E001F018093200190932101A0932201B093AC
S1130E1023018091240190912501A0912601B09194
S1130E2027010196A11DB11D8093240190932501F2
S1130E30A0932601B0932701BF91AF919F918F9109
S1130E403F912F910F900FBE0F901F9018958130F6
S1130E50910541F00297009729F0880F991F019797
S1130E600197F1F70895843041F0863051F08330D2
S1130E7059F48FB58F778FBD08958FB58F7D8FBD52
S1130E80089585B58F7D85BD0895CF93DF9390E058
S1130E90FC01EC58FF4F2491FC01EC56FF4F849168
S1130EA0882371F190E0880F991FFC01E254FF4FF1
S1130EB0A591B4918C549F4FFC01C591D4916111BB
S1130EC00BC08FB7F8949C91209592239C93E88152
S1130ED02E2328838FBF14C0623061F48FB7F89437
S1130EE03C91922F909593239C93E8812E2B2883F9
S1130EF08FBF06C08FB7F894EC912E2B2C938FBF25
S1130F00DF91CF9108951F93CF93DF93C62F282F9E
S1130F1030E0F901EC5AFF4F8491F901EC58FF4F8E
S1130F201491F901EC56FF4FD491DD23C9F08111DE
S1130F300E9433072D2F30E0F901EE0FFF1FEC5410
S1130F40FF4FA591B4918FB7F894C11105C0EC91EE
S1130F5010951E231C9303C0EC911E2B1C938FBF72
S1130F60DF91CF911F910895EE0FFF1F0590F4912B
S10B0F70E02D0994F894FFCF71
S1130F7801010100000000560299062020202020CB
S1130F882020202020202020202020004C205368CE
S1130F987574746572204F70656E005220536875BD
S1130FA874746572204F70656E004D616E75616C66
S1130FB8206D6F6465204F4E004175746F206D6F0E
S1130FC86465204F4E005072657373204F4E005273
S1130FD865736E6F7661205076742E204C746400AD
S1130FE85254462D3930300048616C7465640050A1
S1130FF86C616365206E6577204C204375700050E2
S11310086C616365206E657720522043757000001B
S9030000FC
